:06000000020DA002006BDE
:03000B0002006B85
:0300130002006B7D
:03001B0002006B75
:0300230002006B6D
:03002B0002006B65
:0300330002006B5D
:03003B0002006B55
:0300430002006B4D
:03004B0002006B45
:0300530002006B3D
:03005B0002006B35
:0300630002006B2D
:01006B003262
:0900800002006B0002006B00029B
:08008900006B0002006B000295
:08009100006B0002006B00028D
:08009900006B0002006B000285
:0800A100006B0002006B00027D
:0800A900006B0002006B000275
:0700B100006B0002006B0070
:0901000002006B0002006B00021A
:08010900006B0002006B000214
:08011100006B0002006B00020C
:08011900006B0002006B000204
:08012100006B0002006B0002FC
:08012900006B0002006B0002F4
:08013100006B0002006B0002EC
:08013900006B0002006B0002E4
:08014100006B0002006B0002DC
:08014900006B0002006B0002D4
:08015100006B0002006B0002CC
:08015900006B0002006B0002C4
:08016100006B0002006B0002BC
:08016900006B0002006B0002B4
:08017100006B0002006B0002AC
:07017900006B0002006B00A7
:030DA600020DAE8D
:030DC100020DA977
:050DA90012048580FE2C
:06018000C200E4F508F5E1
:0401860009F50AD29B
:05018A0001750B00757A
:06018F000C0012066A12CA
:0E019500066775CB6375CAC0758E0075C80409
:0E01A300D2AFD2B0D2B190E6047480F00090DA
:0E01B100E60B7403F00090E61074A0F00090CE
:0D01BF00E61174A0F00090E618E4F0009046
:0E01CC00E6047402F00090E61274A2F00090B7
:0D01DA00E619E4F00090E6047404F00090D3
:0D01E700E61374A0F00090E61AE4F000901A
:0E01F400E6047406F00090E61474E2F0009049
:0D020200E61BE4F00090E6047408F00090A4
:0D020F00E61574E0F00090E604E4F00090C5
:0E021C00E60BE4F0000090E6917480F0009094
:0E022A00E6957480F00090E6917480F00090EC
:06023800E6957480F0223F
:0B023E00AA82850C827583E0EAF005BF
:050249000C0509E4B5FD
:04024E000902050A92
:010252002289
:040253002000012264
:0E02570012066690E6A2E0FA30E1030202EB26
:0A026500E509450A60687AC07BE7EE
:0E026F008B9D7AC07BE77B008A9E90E67C74B4
:0C027D0031F07460F0C3743E9509E49504
:0A0289000A50107A3EE50924C2F580
:0602930009E50A34FFF545
:030299000A8007D1
:06029C00AA09E4F509F5D2
:0102A2000A51
:0B02A3008A037C007DE08D9A850B9B98
:0E02AE008A041AEC601090E67BE090E67CF08B
:0802BC007C007DE08D9A80EAD0
:0C02C400859B0B0090E68F74022BF0D29B
:0302D000CF8018C4
:0E02D30030CF1590E7C07431F090E7C1746031
:0A02E100F00090E68F7402F0C2CF27
:0602EB00E5AA30E001224B
:0A02F100C3E50994C1E50A9400403A
:0202FB000122DE
:0E02FD0090E690E0FB7A0090E691E0FC7D0038
:0A030B00EA4CF50DEB4DF50E7C00F9
:0E0315007DF08D9A7C007DF08C9B7C007D003D
:0A032300C3EC950DED950E400302AA
:02032D0003FECD
:07032F00E50870030203BAA8
:0A033600E50DC39CFEE50E9DFFA837
:0C034000087900C3E89EE99F500488067D
:02034C0089071F
:0A034E008E00E508C398F508EE2CB8
:0B035800FCEF3DFD30012C8E008F01FA
:090363008802890318B8FF011992
:0E036C00EA4B60B390E67BE0F582C004C0056A
:0E037A00C000C0011206ACD001D000D005D0EA
:030388000480D816
:04038B008E028F034C
:09038F008A068B071ABAFF011B54
:0E039800EE4F608790E67BE0F582C002C00366
:0E03A600C004C0051206E912023ED005D004C4
:0603B400D003D00280D549
:0D03BA0090E67BE0FA23235401FBB4010020
:0A03C7009201EA30E707743F5AF58F
:0303D1000880227F
:0C03D40030010F8A82C004C00512068DA3
:0603E000D005D0048010DE
:0E03E6008A82C004C00512069E12023ED00597
:0203F400D00433
:0503F6000CBC00010D2C
:0303FB00020323D7
:0803FE000090E6917480F022EA
:0E04060090E6B8E0FA20E70C90E6B9E070024C
:02041400D20014
:0404160075820122C8
:0E041A0090E6B9E0FABA902B90E6BCE025E03F
:0A042800547FFA2400F582E4341832
:0C043200F583E0FB90E740F0EA042400B2
:0C043E00F582E43418F583E0FA90E74101
:03044A00F0800C33
:0C044D0090E7407436F090E7417483F0B3
:0D04590090E68AE4F090E6BEE0FABA0200F8
:09046600500790E6BEE0FA8002A6
:02046F007A020F
:0904710090E68BEAF0758201228D
:06047A0030020312090329
:0504800012025380F59B
:09048500C2AF1201801204E11261
:08048E000CD312086DD2AF126D
:05049600077C02047A5E
:02E1000012010A
:06E10200100100000040C6
:06E10800C016AD06040084
:04E10E000102030106
:0AE112000A061001FFFFFF400100A4
:07E11C0009022000010100CF
:0EE12300804B0904000002FFFFFF0207058188
:0BE13100024000000705020240000051
:0EE13C001201100100000040C016AD060400E4
:04E14A0001020301CA
:0AE14E000A061001FFFFFF40010068
:0EE1580009022000010100804B0904000002B2
:0EE16600FFFFFF0207058102400000070502CF
:04E174000240000065
:01E1780004A2
:02E1790082E141
:02E17B0088E139
:02E17D0096E129
:02E17F00AEE10F
:06E1820006030000090481
:0EE188000E03690078006F002E006400650031
:0EE1960018035500530042002D004A005400AB
:0AE1A400410047002D00490046002D
:0EE1AE0012033000300030003000300030002E
:04E1BC0030003000FF
:0A049B00AA82E50F54FEFBB50F0224
:0204A5008029AC
:0A04A7008A048C05E46210ED621176
:0A04B100EB2400F582E43418F58313
:0A04BB00E0FB7C006210EC6211E52A
:0604C5001033C51133C520
:0504CB001192E0F510A4
:0604D000AB0F050FEB2449
:0A04D60000F582E43418F583EAF023
:0104E00022F9
:0704E100750F007510AA75EC
:0C04E80011AA75820012049B758200129C
:0404F400049B7A00EB
:0C04F800C3EA648094865017EA2408F5DB
:0C05040082E434E1F583E0F582C00212CD
:07051000049BD0020A80E108
:020517007A0068
:0C051900C3EA648094825017EA2423F5A2
:0C05250082E434E1F583E0F582C00212AC
:07053100049BD0020A80E1E7
:0E05380075821C12049B75820012049B7A00CF
:0C054600C3EA648094825017EA2402F596
:0C05520082E434E1F583E0F582C002127F
:07055E00049BD0020A80E1BA
:0C0565007486250FFAF582C00212049B78
:0C05710090E188E0F58212049BD002901B
:0D057D00E188E02AFAF582C00212049B908A
:0B058A00E196E0F58212049BD0029085
:0A059500E196E02AF58212049B9023
:0A059F00E1AEE0F58212049B7A0041
:0E05A90090E188E0FBC3EA64808BF063F08091
:0B05B70095F05017EA2488F582E43428
:0C05C200E1F583E0F582C00212049BD03A
:0405CE00020A80D7C6
:0205D2007A00AD
:0E05D40090E196E0FBC3EA64808BF063F08058
:0B05E20095F05017EA2496F582E434EF
:0C05ED00E1F583E0F582C00212049BD00F
:0405F900020A80D79B
:0205FD007A0082
:0E05FF0090E1AEE0FBC3EA64808BF063F08015
:0B060D0095F05017EA24AEF582E434AB
:0C061800E1F583E0F582C00212049BD0E3
:04062400020A80D76F
:020628007A0056
:0C062A00C3EA648094845017EA240EF5A3
:0C06360082E434E1F583E0F582C002129A
:07064200049BD0020A80E1D5
:0C0649007482250F400875820012049B8B
:0206550080F231
:08065700AA1090187EEAF0AA37
:07065F001190187FEAF02260
:010666002271
:010667002270
:01066800226F
:01066900226E
:0E066A0090E6007412F090E60174E0F0AAB57C
:0E06780074FE5AF5F074BC45F0F5B5D2B5D25B
:07068600B79001F4020D8F93
:0E068D00E582FA1392B4EAA2E192B3EAA2E483
:03069B0092B222F6
:0E069E0012068DA2B0E433FA74024AF58222ED
:0E06AC00E5821392B2D2B413C2B492B2D2B4A9
:0E06BA0013C2B492B2D2B413C2B492B2D2B48C
:0E06C80013C2B492B2D2B413C2B492B2D2B47E
:0E06D60013C2B492B2D2B413C2B492B2D2B470
:0506E40000C2B4222257
:0E06E900E582A2B01392B2D2B4C2B4A2B01392
:0E06F70092B2D2B4C2B4A2B01392B2D2B4C2C4
:0E070500B4A2B01392B2D2B4C2B4A2B0139296
:0E071300B2D2B4C2B4A2B01392B2D2B4C2B485
:0E072100A2B01392B2D2B4C2B4A2B01392B27C
:09072F00D2B400C2B4F58222220A
:080738007880E84400600C79B0
:0C07400001901800E4F0A3D8FCD9FAD016
:0E074C0083D082F6D8FDC082C0837582002261
:08075A0090E6A0E04401F0224A
:0E076200AA8274805AC423541FFB740F5A904D
:0C077000E6834BF090E683E04420F0228A
:0E077C0090E680E0440AF09000FA120D8F9093
:0E078A00E65D74FFF090E65F74FFF05391EFB0
:0807980090E680E054F7F02226
:060DBB00E478FFF6D8FD0C
:060DA0007512007513003E
:0A07A00090E680E0FA30E7197514C6
:0307AA00007515C2
:0307AD00E17516DD
:0307B000127517A8
:0307B300E17518D5
:0307B6001C751996
:0307B900E1751ACD
:0307BC0058751B52
:0207BF00E12235
:0407C10075143C75FA
:0307C50015E175C6
:0307C800164E7555
:0307CB0017E175BE
:0307CE0018587543
:0307D10019E175B6
:0307D4001A1C7577
:0307D7001BE12201
:0907DA005391EF75A100D2023227
:0C07E300C021C0E0C0F0C082C083C00292
:0E07EF00C003C004C005C006C007C000C001A2
:0E07FD00C0D075D0005391EF75A1001207A077
:0E080B00D0D0D001D000D007D006D005D00448
:0D081900D003D002D083D082D0F0D0E0D048
:0208260021327D
:0C082800C021C0E0C0F0C082C083C0024C
:0E083400C003C004C005C006C007C000C0015C
:0E084200C0D075D0005391EF75A1001207A031
:0E085000D0D0D001D000D007D006D005D00403
:0D085E00D003D002D083D082D0F0D0E0D003
:02086B00213238
:05086D001207A0751C3C
:03087200DA751D17
:0808750007758200120C2C75BE
:03087D001CE37504
:060880001D077582101235
:040886000C2C751CA5
:03088A0028751DB1
:0C088D0008758214120C2C90E65C74318B
:02089900F0224B
:0D089B00E582547FFA24F750047582002294
:0708A800BA01047582012270
:0808AF00530201E4BA00010448
:0308B700F58222A5
:0E08BA00AA82BA010C90E6A1E0FB7C008B82C2
:0308C8008C8322FC
:0E08CB00BA810C90E6A2E0FB7C008B828C834D
:0108D90022FC
:0E08DA0053027FEA700C90E6A0E0FB7C008BDE
:0408E800828C832259
:0E08EC0090E6A3E0FB7C00EAC313FA7D00EA6D
:0908FA002BFBED3C8B82F58322FF
:0C090300C20290E6B8E0FA530260BA00AD
:03090F000280283B
:05091200BA2002800D77
:05091700BA4002800E51
:05091C00BA6002800337
:03092100020BC105
:0609240012075A020BC18C
:0A092A00120406E5826003020BC10F
:0609340012075A020BC17C
:0D093A0090E6B8E0FA530280BA8002800314
:03094700020AC2DF
:0B094A0090E6B9E0FABA0003020A3B95
:05095500BA0602803526
:05095A00BA080280084C
:05095F00BA0A02801736
:03096400020ABCC8
:0C09670090E740E512F090E68AE4F09082
:08097300E68B7401F0020BC1D8
:0C097B0090E740E513F090E68AE4F0906D
:08098700E68B7401F0020BC1C4
:0A098F0090E6BBE0FABA01028017FF
:05099900BA02028038E3
:05099E00BA03028059BC
:0509A300BA0602801BF2
:0509A800BA0702803CCB
:0309AD00020A3506
:0A09B000AA14AB1590E6B3EBF07B40
:0909BA000090E6B4EAF0020BC162
:0A09C300AA16AB1790E6B3EBF07B29
:0909CD000090E6B4EAF0020BC14F
:0A09D600AA18AB1990E6B3EBF07B12
:0909E0000090E6B4EAF0020BC13C
:0A09E900AA1AAB1B90E6B3EBF07BFB
:0909F3000090E6B4EAF0020BC129
:0E09FC0090E6BAE0FA90E178E0FBC3EA9B4097
:070A0A000612075A020BC19E
:0C0A110090E6BAE075F002A42479F582AA
:0B0A1D0074E135F0F583E0FAA3E090EF
:0D0A2800E6B3F07B0090E6B4EAF0020BC1EB
:060A350012075A020BC17A
:0D0A3B0090E6B8E0FA53021FBA0002800AEC
:050A4800BA0102801B51
:050A4D00BA0266802CD6
:0E0A520090E740E4F090E741F090E68AF090E3
:080A6000E68B7402F0020BC1E9
:0E0A680090E740E4F090E741F090E68AF090CD
:080A7600E68B7402F0020BC1D3
:0E0A7E0090E6BCE0F58212089BE582602590B0
:0E0A8C00E6BCE0F5821208BAE0FA53020190CF
:0E0A9A00E740EAF090E741E4F090E68AF09041
:080AA800E68B7402F0020BC1A1
:060AB00012075A020BC1FF
:060AB60012075A020BC1F9
:060ABC0012075A020BC1F3
:0C0AC20090E6B9E0FA24F45003020BBEE9
:070ACE00EA2A2A900AD57301
:070AD500020BBE020B0B0235
:060ADC000B86020B67020D
:060AE2000BBE020BBE0278
:060AE8000BBE020BBE0272
:060AEE000BBE020AF90232
:050AF4000BBE020B0225
:090AF90090E6BAE0F512020BC10F
:090B020090E6BAE0F513020BC104
:0D0B0B0090E6B8E0FA53021FBA0002800520
:050B1800BA0247800A4B
:0A0B1D0090E6BAE012075A020BC17D
:0D0B270090E6BAE0703090E6BCE0F5821276
:0D0B3400089BE582602390E6BCE0F582128C
:0E0B410008BAAA82AB83E0FC5304FE8A828BC2
:0E0B4F0083ECF090E6BCE0F582120762806451
:050B5D0012075A805F41
:050B620012075A805A41
:0E0B670090E6B8E0FA53021FBA004F90E6BACB
:070B7500E0FABA010280055D
:050B7C00BA02028040F6
:050B810012075A803B41
:0E0B860090E6BAE0FA702C90E6BCE0F5821220
:0D0B9400089BE582601A90E6BCE0F5821235
:0E0BA10008BAAA82AB83E0FC4304018A828B6F
:050BAF0083ECF0800D55
:050BB40012075A800841
:050BB90012075A800341
:030BBE0012075AC1
:080BC10090E6A0E04480F02260
:050BC900AA82BA03003E
:070BCE004005EA249C5001E0
:010BD50022FD
:090BD600740F5AFBBB03028007F7
:070BDF00740F5AFBBB0B452C
:0A0BE600A2AF9203C2AFEA2400F5AB
:0C0BF00082E43400F5837402F07B007492
:0C0BFC00012AFCE43BFDEC2400F582ED36
:0A0C08003400F583E51DFCF07402D2
:0C0C12002AFAE43BFBEA2400F582EB34F4
:0A0C1E0000F583AA1C7B00EAF0A297
:030C28000392AF85
:010C2B0022A6
:080C2C00E582FA248350012245
:060C3400EA5403600122F6
:0A0C3A00A2AF9204C2AFEA2400F555
:0C0C440082E43401F5837402F07B00743C
:0C0C5000012AFCE43BFDEC2400F582EDE1
:0A0C5C003401F583E51DF074022A4F
:0B0C6600FAE43BFBEA2400F582EB34CB
:080C710001F583AA1CEAF0A2C0
:040C79000492AF2210
:050C7D00AA82BA80000C
:070C82004005EA244B50017C
:010C89002248
:060C8A00EA5403600122A0
:0A0C9000A2AF9205C2AFEA2480F57E
:0C0C9A0082E43400F5837402F07B0074E7
:0C0CA600012AFCE43BFDEC2480F582ED0B
:0A0CB2003400F583E51DF074022AFA
:0B0CBC00FAE43BFBEA2480F582EB34F5
:080CC70000F583AA1CEAF0A26B
:040CCF000592AF22B9
:080CD300C2E8C2EA751C0075BD
:060CDB001D0175824312A9
:040CE1000BC9751CAA
:030CE50080751DFA
:0C0CE80000758253120BC90090E650E426
:0E0CF400F00090E652E4F00090E654E4F000C8
:0E0D020090E656E4F00090E65174FFF0009089
:0E0D1000E65374FFF00090E65574FFF000907B
:0E0D1E00E65774FFF00090E658E4F090E659B6
:0E0D2C0074FFF090E65AE4F090E65B74FFF07E
:0E0D3A0090E65CE4F090E65D74FFF090E65EFB
:0E0D4800E4F090E65F74FFF00090E660E4F0E7
:0D0D56000090E66174FFF090E662E4F0901A
:0E0D6300E66374FFF090E665E4F090E66874D5
:0A0D71000BF05391AFD2E8D2EA2252
:010D7B002255
:020D7C00AA8249
:060D7E00120D7BDAFB22DE
:030D840090FB5091
:080D8700A3E582458370F92207
:040D8F00AA82AB8306
:080D9300120D841ABAFF011BC6
:050D9B00EA4B70F42298
:030DAE007581212B
:0A0DB100120738E5826003020DA965
:00000001FF
